{
    "_format": "hh-sol-artifact-1",
    "contractName": "Score",
    "sourceName": "contracts/Score.sol",
    "abi": [
        {
            "inputs": [],
            "name": "CompaniesRegistered",
            "outputs": [
                {
                    "internalType": "string",
                    "name": "",
                    "type": "string"
                }
            ],
            "stateMutability": "view",
            "type": "function"
        },
        {
            "inputs": [
                {
                    "internalType": "string",
                    "name": "name",
                    "type": "string"
                },
                {
                    "internalType": "uint256",
                    "name": "experience",
                    "type": "uint256"
                },
                {
                    "internalType": "uint256",
                    "name": "skills",
                    "type": "uint256"
                },
                {
                    "internalType": "uint256",
                    "name": "education",
                    "type": "uint256"
                },
                {
                    "internalType": "uint256",
                    "name": "jobOffer",
                    "type": "uint256"
                },
                {
                    "internalType": "uint256",
                    "name": "interview",
                    "type": "uint256"
                }
            ],
            "name": "createCreditScore",
            "outputs": [
                {
                    "internalType": "string",
                    "name": "",
                    "type": "string"
                }
            ],
            "stateMutability": "nonpayable",
            "type": "function"
        },
        {
            "inputs": [
                {
                    "internalType": "uint256",
                    "name": "",
                    "type": "uint256"
                }
            ],
            "name": "employeeCards",
            "outputs": [
                {
                    "internalType": "string",
                    "name": "name",
                    "type": "string"
                },
                {
                    "internalType": "address",
                    "name": "owner",
                    "type": "address"
                },
                {
                    "internalType": "uint256",
                    "name": "experience",
                    "type": "uint256"
                },
                {
                    "internalType": "uint256",
                    "name": "skills",
                    "type": "uint256"
                },
                {
                    "internalType": "uint256",
                    "name": "education",
                    "type": "uint256"
                },
                {
                    "internalType": "uint256",
                    "name": "jobOffer",
                    "type": "uint256"
                },
                {
                    "internalType": "uint256",
                    "name": "interview",
                    "type": "uint256"
                }
            ],
            "stateMutability": "view",
            "type": "function"
        },
        {
            "inputs": [
                {
                    "internalType": "string",
                    "name": "name",
                    "type": "string"
                }
            ],
            "name": "getScore",
            "outputs": [
                {
                    "components": [
                        {
                            "internalType": "string",
                            "name": "name",
                            "type": "string"
                        },
                        {
                            "internalType": "address",
                            "name": "owner",
                            "type": "address"
                        },
                        {
                            "internalType": "uint256",
                            "name": "experience",
                            "type": "uint256"
                        },
                        {
                            "internalType": "uint256",
                            "name": "skills",
                            "type": "uint256"
                        },
                        {
                            "internalType": "uint256",
                            "name": "education",
                            "type": "uint256"
                        },
                        {
                            "internalType": "uint256",
                            "name": "jobOffer",
                            "type": "uint256"
                        },
                        {
                            "internalType": "uint256",
                            "name": "interview",
                            "type": "uint256"
                        }
                    ],
                    "internalType": "struct Score.EmployeeCard",
                    "name": "",
                    "type": "tuple"
                }
            ],
            "stateMutability": "view",
            "type": "function"
        },
        {
            "inputs": [
                {
                    "internalType": "address",
                    "name": "",
                    "type": "address"
                }
            ],
            "name": "registerCompany",
            "outputs": [
                {
                    "internalType": "string",
                    "name": "",
                    "type": "string"
                }
            ],
            "stateMutability": "view",
            "type": "function"
        },
        {
            "inputs": [
                {
                    "internalType": "string",
                    "name": "CompanyName",
                    "type": "string"
                }
            ],
            "name": "registerCompanyName",
            "outputs": [
                {
                    "internalType": "string",
                    "name": "",
                    "type": "string"
                }
            ],
            "stateMutability": "nonpayable",
            "type": "function"
        },
        {
            "inputs": [
                {
                    "internalType": "string",
                    "name": "name",
                    "type": "string"
                },
                {
                    "internalType": "uint256",
                    "name": "experience",
                    "type": "uint256"
                },
                {
                    "internalType": "uint256",
                    "name": "skills",
                    "type": "uint256"
                },
                {
                    "internalType": "uint256",
                    "name": "education",
                    "type": "uint256"
                },
                {
                    "internalType": "uint256",
                    "name": "jobOffer",
                    "type": "uint256"
                },
                {
                    "internalType": "uint256",
                    "name": "interview",
                    "type": "uint256"
                }
            ],
            "name": "updateCreditScore",
            "outputs": [
                {
                    "internalType": "string",
                    "name": "",
                    "type": "string"
                }
            ],
            "stateMutability": "nonpayable",
            "type": "function"
        }
    ],
    "bytecode": "0x608060405234801561001057600080fd5b50610ded806100206000396000f3fe608060405234801561001057600080fd5b506004361061007d5760003560e01c8063a5fef0571161005b578063a5fef057146100f1578063b2bde3b814610104578063d4a35d6f1461010c578063ed837ff81461011f57600080fd5b8063160202731461008257806318340bd4146100ab5780636ecd5371146100cb575b600080fd5b610095610090366004610a31565b610132565b6040516100a29190610acf565b60405180910390f35b6100be6100b9366004610a31565b6102e9565b6040516100a29190610b3c565b6100de6100d9366004610b56565b610337565b6040516100a29796959493929190610b6f565b6100be6100ff366004610bbc565b61041e565b6100be6104b8565b6100be61011a366004610be5565b610559565b6100be61012d366004610be5565b610740565b61013a610895565b610142610895565b60005b6001548110156102e1578484604051602001610162929190610c50565b604051602081830303815290604052805190602001206001828154811061018b5761018b610c60565b90600052602060002090600702016000016040516020016101ac9190610cb1565b6040516020818303038152906040528051906020012014156102cf57600181815481106101db576101db610c60565b90600052602060002090600702016040518060e001604052908160008201805461020490610c76565b80601f016020809104026020016040519081016040528092919081815260200182805461023090610c76565b801561027d5780601f106102525761010080835404028352916020019161027d565b820191906000526020600020905b81548152906001019060200180831161026057829003601f168201915b505050918352505060018201546001600160a01b03166020820152600282015460408201526003820154606082015260048201546080820152600582015460a082015260069091015460c09091015291505b806102d981610d4d565b915050610145565b509392505050565b3360009081526020819052604090206060906103069084846108db565b505060408051808201909152601281527110dbdb5c185b9e48149959da5cdd195c995960721b602082015292915050565b6001818154811061034757600080fd5b906000526020600020906007020160009150905080600001805461036a90610c76565b80601f016020809104026020016040519081016040528092919081815260200182805461039690610c76565b80156103e35780601f106103b8576101008083540402835291602001916103e3565b820191906000526020600020905b8154815290600101906020018083116103c657829003601f168201915b5050506001840154600285015460038601546004870154600588015460069098015496976001600160a01b0390941696929550909350919087565b6000602081905290815260409020805461043790610c76565b80601f016020809104026020016040519081016040528092919081815260200182805461046390610c76565b80156104b05780601f10610485576101008083540402835291602001916104b0565b820191906000526020600020905b81548152906001019060200180831161049357829003601f168201915b505050505081565b3360009081526020819052604090208054606091906104d690610c76565b80601f016020809104026020016040519081016040528092919081815260200182805461050290610c76565b801561054f5780601f106105245761010080835404028352916020019161054f565b820191906000526020600020905b81548152906001019060200180831161053257829003601f168201915b5050505050905090565b606060006040518060e001604052808a8a8080601f0160208091040260200160405190810160405280939291908181526020018383808284376000920182905250938552505033602080850191909152604084018c9052606084018b9052608084018a905260a0840189905260c090930187905250600180548082018255915282518051939450849360079092027fb10e2d527612073b26eecdfd717e6a320cf44b4afac2b0732d9fcbe2b7fa0cf601926106199284929091019061095f565b506020828101516001830180546001600160a01b0319166001600160a01b039092169190911790556040808401516002840155606084015160038401556080840151600484015560a0840151600584015560c09093015160069092019190915533600090815290819052908120805461069190610c76565b80601f01602080910402602001604051908101604052809291908181526020018280546106bd90610c76565b801561070a5780601f106106df5761010080835404028352916020019161070a565b820191906000526020600020905b8154815290600101906020018083116106ed57829003601f168201915b50505050509050806040516020016107229190610d76565b60405160208183030381529060405292505050979650505050505050565b606060006040518060e001604052808a8a8080601f0160208091040260200160405190810160405280939291908181526020018383808284376000920182905250938552505033602080850191909152604084018c9052606084018b9052608084018a905260a0840189905260c090930187905250600180548082018255915282518051939450849360079092027fb10e2d527612073b26eecdfd717e6a320cf44b4afac2b0732d9fcbe2b7fa0cf601926108009284929091019061095f565b506020828101516001830180546001600160a01b0319166001600160a01b039092169190911790556040808401516002840155606084015160038401556080840151600484015560a0840151600584015560c09093015160069092019190915581518083019092526014825273115b5c1b1bde59594814d8dbdc9948105919195960621b908201529998505050505050505050565b6040518060e001604052806060815260200160006001600160a01b0316815260200160008152602001600081526020016000815260200160008152602001600081525090565b8280546108e790610c76565b90600052602060002090601f016020900481019282610909576000855561094f565b82601f106109225782800160ff1982351617855561094f565b8280016001018555821561094f579182015b8281111561094f578235825591602001919060010190610934565b5061095b9291506109d3565b5090565b82805461096b90610c76565b90600052602060002090601f01602090048101928261098d576000855561094f565b82601f106109a657805160ff191683800117855561094f565b8280016001018555821561094f579182015b8281111561094f5782518255916020019190600101906109b8565b5b8082111561095b57600081556001016109d4565b60008083601f8401126109fa57600080fd5b50813567ffffffffffffffff811115610a1257600080fd5b602083019150836020828501011115610a2a57600080fd5b9250929050565b60008060208385031215610a4457600080fd5b823567ffffffffffffffff811115610a5b57600080fd5b610a67858286016109e8565b90969095509350505050565b60005b83811015610a8e578181015183820152602001610a76565b83811115610a9d576000848401525b50505050565b60008151808452610abb816020860160208601610a73565b601f01601f19169290920160200192915050565b602081526000825160e06020840152610aec610100840182610aa3565b905060018060a01b0360208501511660408401526040840151606084015260608401516080840152608084015160a084015260a084015160c084015260c084015160e08401528091505092915050565b602081526000610b4f6020830184610aa3565b9392505050565b600060208284031215610b6857600080fd5b5035919050565b60e081526000610b8260e083018a610aa3565b6001600160a01b039890981660208301525060408101959095526060850193909352608084019190915260a083015260c090910152919050565b600060208284031215610bce57600080fd5b81356001600160a01b0381168114610b4f57600080fd5b600080600080600080600060c0888a031215610c0057600080fd5b873567ffffffffffffffff811115610c1757600080fd5b610c238a828b016109e8565b909b909a5060208a01359960408101359950606081013598506080810135975060a0013595509350505050565b8183823760009101908152919050565b634e487b7160e01b600052603260045260246000fd5b600181811c90821680610c8a57607f821691505b60208210811415610cab57634e487b7160e01b600052602260045260246000fd5b50919050565b600080835481600182811c915080831680610ccd57607f831692505b6020808410821415610ced57634e487b7160e01b86526022600452602486fd5b818015610d015760018114610d1257610d3f565b60ff19861689528489019650610d3f565b60008a81526020902060005b86811015610d375781548b820152908501908301610d1e565b505084890196505b509498975050505050505050565b6000600019821415610d6f57634e487b7160e01b600052601160045260246000fd5b5060010190565b60008251610d88818460208701610a73565b7f456d706c6f7965652053636f726520557064617465642053636f726500000000920191825250601c0191905056fea2646970667358221220a0c0ae1df4e89f0a79a25f6e295af30bc4ba77a3c5a431f8830e49ac8172f72164736f6c63430008080033",
    "linkReferences": {},
    "deployedLinkReferences": {}
}